{
  "contractName": "Picolo",
  "abi": [
    {
      "constant": true,
      "inputs": [],
      "name": "totalPayments",
      "outputs": [
        {
          "name": "",
          "type": "uint256"
        }
      ],
      "payable": false,
      "stateMutability": "view",
      "type": "function"
    },
    {
      "constant": true,
      "inputs": [],
      "name": "name",
      "outputs": [
        {
          "name": "",
          "type": "string"
        }
      ],
      "payable": false,
      "stateMutability": "view",
      "type": "function"
    },
    {
      "constant": false,
      "inputs": [
        {
          "name": "_spender",
          "type": "address"
        },
        {
          "name": "_value",
          "type": "uint256"
        }
      ],
      "name": "approve",
      "outputs": [
        {
          "name": "success",
          "type": "bool"
        }
      ],
      "payable": false,
      "stateMutability": "nonpayable",
      "type": "function"
    },
    {
      "constant": true,
      "inputs": [],
      "name": "totalSupply",
      "outputs": [
        {
          "name": "",
          "type": "uint256"
        }
      ],
      "payable": false,
      "stateMutability": "view",
      "type": "function"
    },
    {
      "constant": false,
      "inputs": [
        {
          "name": "_from",
          "type": "address"
        },
        {
          "name": "_to",
          "type": "address"
        },
        {
          "name": "_value",
          "type": "uint256"
        }
      ],
      "name": "transferFrom",
      "outputs": [
        {
          "name": "success",
          "type": "bool"
        }
      ],
      "payable": false,
      "stateMutability": "nonpayable",
      "type": "function"
    },
    {
      "constant": true,
      "inputs": [],
      "name": "decimals",
      "outputs": [
        {
          "name": "",
          "type": "uint256"
        }
      ],
      "payable": false,
      "stateMutability": "view",
      "type": "function"
    },
    {
      "constant": true,
      "inputs": [
        {
          "name": "",
          "type": "address"
        }
      ],
      "name": "registeredNodesStake",
      "outputs": [
        {
          "name": "",
          "type": "uint256"
        }
      ],
      "payable": false,
      "stateMutability": "view",
      "type": "function"
    },
    {
      "constant": true,
      "inputs": [
        {
          "name": "",
          "type": "address"
        }
      ],
      "name": "maliciousVoteTally",
      "outputs": [
        {
          "name": "",
          "type": "uint256"
        }
      ],
      "payable": false,
      "stateMutability": "view",
      "type": "function"
    },
    {
      "constant": true,
      "inputs": [],
      "name": "version",
      "outputs": [
        {
          "name": "",
          "type": "string"
        }
      ],
      "payable": false,
      "stateMutability": "view",
      "type": "function"
    },
    {
      "constant": true,
      "inputs": [
        {
          "name": "",
          "type": "address"
        }
      ],
      "name": "nodeStatus",
      "outputs": [
        {
          "name": "",
          "type": "string"
        }
      ],
      "payable": false,
      "stateMutability": "view",
      "type": "function"
    },
    {
      "constant": true,
      "inputs": [],
      "name": "entryStake",
      "outputs": [
        {
          "name": "",
          "type": "uint256"
        }
      ],
      "payable": false,
      "stateMutability": "view",
      "type": "function"
    },
    {
      "constant": true,
      "inputs": [
        {
          "name": "_owner",
          "type": "address"
        }
      ],
      "name": "balanceOf",
      "outputs": [
        {
          "name": "balance",
          "type": "uint256"
        }
      ],
      "payable": false,
      "stateMutability": "view",
      "type": "function"
    },
    {
      "constant": true,
      "inputs": [],
      "name": "owner",
      "outputs": [
        {
          "name": "",
          "type": "address"
        }
      ],
      "payable": false,
      "stateMutability": "view",
      "type": "function"
    },
    {
      "constant": true,
      "inputs": [],
      "name": "symbol",
      "outputs": [
        {
          "name": "",
          "type": "string"
        }
      ],
      "payable": false,
      "stateMutability": "view",
      "type": "function"
    },
    {
      "constant": true,
      "inputs": [],
      "name": "convictThreshold",
      "outputs": [
        {
          "name": "",
          "type": "uint256"
        }
      ],
      "payable": false,
      "stateMutability": "view",
      "type": "function"
    },
    {
      "constant": false,
      "inputs": [
        {
          "name": "_to",
          "type": "address"
        },
        {
          "name": "_value",
          "type": "uint256"
        }
      ],
      "name": "transfer",
      "outputs": [
        {
          "name": "success",
          "type": "bool"
        }
      ],
      "payable": false,
      "stateMutability": "nonpayable",
      "type": "function"
    },
    {
      "constant": true,
      "inputs": [
        {
          "name": "",
          "type": "address"
        }
      ],
      "name": "voteTally",
      "outputs": [
        {
          "name": "",
          "type": "uint256"
        }
      ],
      "payable": false,
      "stateMutability": "view",
      "type": "function"
    },
    {
      "constant": true,
      "inputs": [
        {
          "name": "_owner",
          "type": "address"
        },
        {
          "name": "_spender",
          "type": "address"
        }
      ],
      "name": "allowance",
      "outputs": [
        {
          "name": "remaining",
          "type": "uint256"
        }
      ],
      "payable": false,
      "stateMutability": "view",
      "type": "function"
    },
    {
      "constant": false,
      "inputs": [
        {
          "name": "newOwner",
          "type": "address"
        }
      ],
      "name": "transferOwnership",
      "outputs": [],
      "payable": false,
      "stateMutability": "nonpayable",
      "type": "function"
    },
    {
      "constant": true,
      "inputs": [
        {
          "name": "",
          "type": "address"
        }
      ],
      "name": "validators",
      "outputs": [
        {
          "name": "",
          "type": "bool"
        }
      ],
      "payable": false,
      "stateMutability": "view",
      "type": "function"
    },
    {
      "inputs": [],
      "payable": false,
      "stateMutability": "nonpayable",
      "type": "constructor"
    },
    {
      "anonymous": false,
      "inputs": [
        {
          "indexed": false,
          "name": "newStatus",
          "type": "string"
        },
        {
          "indexed": false,
          "name": "sender",
          "type": "address"
        }
      ],
      "name": "nodeStatusChangeEvent",
      "type": "event"
    },
    {
      "anonymous": false,
      "inputs": [
        {
          "indexed": true,
          "name": "_from",
          "type": "address"
        },
        {
          "indexed": true,
          "name": "_to",
          "type": "address"
        },
        {
          "indexed": false,
          "name": "_value",
          "type": "uint256"
        }
      ],
      "name": "Transfer",
      "type": "event"
    },
    {
      "anonymous": false,
      "inputs": [
        {
          "indexed": true,
          "name": "_owner",
          "type": "address"
        },
        {
          "indexed": true,
          "name": "_spender",
          "type": "address"
        },
        {
          "indexed": false,
          "name": "_value",
          "type": "uint256"
        }
      ],
      "name": "Approval",
      "type": "event"
    },
    {
      "anonymous": false,
      "inputs": [
        {
          "indexed": true,
          "name": "previousOwner",
          "type": "address"
        },
        {
          "indexed": true,
          "name": "newOwner",
          "type": "address"
        }
      ],
      "name": "OwnershipTransferred",
      "type": "event"
    },
    {
      "constant": false,
      "inputs": [],
      "name": "register",
      "outputs": [],
      "payable": true,
      "stateMutability": "payable",
      "type": "function"
    },
    {
      "constant": false,
      "inputs": [],
      "name": "start",
      "outputs": [],
      "payable": false,
      "stateMutability": "nonpayable",
      "type": "function"
    },
    {
      "constant": false,
      "inputs": [
        {
          "name": "mined",
          "type": "uint256"
        }
      ],
      "name": "stop",
      "outputs": [],
      "payable": false,
      "stateMutability": "nonpayable",
      "type": "function"
    },
    {
      "constant": false,
      "inputs": [
        {
          "name": "mined",
          "type": "uint256"
        }
      ],
      "name": "unregister",
      "outputs": [],
      "payable": false,
      "stateMutability": "nonpayable",
      "type": "function"
    },
    {
      "constant": false,
      "inputs": [
        {
          "name": "mined",
          "type": "uint256"
        }
      ],
      "name": "claim",
      "outputs": [],
      "payable": false,
      "stateMutability": "nonpayable",
      "type": "function"
    },
    {
      "constant": false,
      "inputs": [
        {
          "name": "_stake",
          "type": "uint256"
        }
      ],
      "name": "changeEntryStake",
      "outputs": [],
      "payable": false,
      "stateMutability": "nonpayable",
      "type": "function"
    },
    {
      "constant": true,
      "inputs": [],
      "name": "getContractBalance",
      "outputs": [
        {
          "name": "",
          "type": "uint256"
        }
      ],
      "payable": false,
      "stateMutability": "view",
      "type": "function"
    },
    {
      "constant": false,
      "inputs": [
        {
          "name": "_target",
          "type": "address"
        }
      ],
      "name": "addPotentialMalicious",
      "outputs": [],
      "payable": false,
      "stateMutability": "nonpayable",
      "type": "function"
    },
    {
      "constant": false,
      "inputs": [
        {
          "name": "_target",
          "type": "address"
        },
        {
          "name": "_convict",
          "type": "bool"
        }
      ],
      "name": "voteMalicious",
      "outputs": [],
      "payable": false,
      "stateMutability": "nonpayable",
      "type": "function"
    }
  ],
  "bytecode": "0x606060405260408051908101604052600381527f312e300000000000000000000000000000000000000000000000000000000000602082015260049080516200004d929160200190620000ad565b50662386f26fc10000600555600360095534156200006a57600080fd5b60008054600160a060020a03191633600160a060020a031690811782556b033b2e3c9fd0803ce80000006001819055908252600260205260409091205562000152565b828054600181600116156101000203166002900490600052602060002090601f016020900481019282601f10620000f057805160ff191683800117855562000120565b8280016001018555821562000120579182015b828111156200012057825182559160200191906001019062000103565b506200012e92915062000132565b5090565b6200014f91905b808211156200012e576000815560010162000139565b90565b6116fa80620001626000396000f3006060604052600436106101735763ffffffff7c01000000000000000000000000000000000000000000000000000000006000350416625b4487811461017857806306fdde031461019d578063095ea7b31461022757806318160ddd1461025d5780631aa3a0081461027057806323b872dd1461027a5780632b080127146102a2578063313ce567146102b8578063379607f5146102cb57806342b276db146102e1578063483fcd2f146103005780634b3280de1461031f57806354fd4d50146103435780635e1cd7f3146103565780636299f8cf146103755780636de0336c1461038b5780636f9fb98a1461039e57806370a08231146103b15780638c36b0d4146103d05780638da5cb5b146103ef57806395d89b411461041e5780639f39207e14610431578063a02b161e14610444578063a9059cbb1461045a578063b72d43e21461047c578063be9a65551461049b578063dd62ed3e146104ae578063f2fde38b146104d3578063fa52c7d8146104f2575b600080fd5b341561018357600080fd5b61018b610511565b60405190815260200160405180910390f35b34156101a857600080fd5b6101b0610517565b60405160208082528190810183818151815260200191508051906020019080838360005b838110156101ec5780820151838201526020016101d4565b50505050905090810190601f1680156102195780820380516001836020036101000a031916815260200191505b509250505060405180910390f35b341561023257600080fd5b610249600160a060020a036004351660243561054e565b604051901515815260200160405180910390f35b341561026857600080fd5b61018b6105bb565b6102786105c1565b005b341561028557600080fd5b610249600160a060020a0360043581169060243516604435610749565b34156102ad57600080fd5b610278600435610841565b34156102c357600080fd5b61018b610861565b34156102d657600080fd5b610278600435610866565b34156102ec57600080fd5b61018b600160a060020a03600435166108cf565b341561030b57600080fd5b61018b600160a060020a03600435166108e1565b341561032a57600080fd5b610278600160a060020a036004351660243515156108f3565b341561034e57600080fd5b6101b0610b4c565b341561036157600080fd5b6101b0600160a060020a0360043516610bea565b341561038057600080fd5b610278600435610c67565b341561039657600080fd5b61018b610e1d565b34156103a957600080fd5b61018b610e23565b34156103bc57600080fd5b61018b600160a060020a0360043516610e32565b34156103db57600080fd5b610278600160a060020a0360043516610e4d565b34156103fa57600080fd5b610402610f59565b604051600160a060020a03909116815260200160405180910390f35b341561042957600080fd5b6101b0610f68565b341561043c57600080fd5b61018b610f9f565b341561044f57600080fd5b610278600435610fa5565b341561046557600080fd5b610249600160a060020a0360043516602435611292565b341561048757600080fd5b61018b600160a060020a0360043516611335565b34156104a657600080fd5b610278611347565b34156104b957600080fd5b61018b600160a060020a03600435811690602435166114b6565b34156104de57600080fd5b610278600160a060020a03600435166114e1565b34156104fd57600080fd5b610249600160a060020a036004351661157c565b60085481565b60408051908101604052600c81527f5069636f6c6f20546f6b656e0000000000000000000000000000000000000000602082015281565b600160a060020a03338116600081815260036020908152604080832094871680845294909152808220859055909291907f8c5be1e5ebec7d5bd14f71427d1e84f3dd0314c0f7b2291e5b200ac8c7c3b9259085905190815260200160405180910390a35060015b92915050565b60015481565b60055434146105cf57600080fd5b604051604051908190039020600160a060020a033316600090815260076020526040908190209051808280546001816001161561010002031660029004801561064f5780601f1061062d57610100808354040283529182019161064f565b820191906000526020600020905b81548152906001019060200180831161063b575b50509150506040519081900390201461066757600080fd5b600160a060020a0333166000908152600660205260409020541561068a57600080fd5b6040805190810160409081526008825260008051602061166f833981519152602080840191909152600160a060020a03331660009081526007909152209080516106d89291602001906115d6565b5060055433600160a060020a03811660009081526006602052604090819020929092556000805160206116af8339815191529151600160a060020a039091166020820152604080825260088183015260008051602061166f83398151915260608301526080909101905180910390a1565b600160a060020a0383166000908152600260205260408120548290108015906107995750600160a060020a0380851660009081526003602090815260408083203390941683529290522054829010155b80156107a55750600082115b1561083657600160a060020a03808416600081815260026020908152604080832080548801905588851680845281842080548990039055600383528184203390961684529490915290819020805486900390559091907fddf252ad1be2c89b69c2b068fc378daa952ba7f163c4a11628f55a4df523b3ef9085905190815260200160405180910390a350600161083a565b5060005b9392505050565b60005433600160a060020a0390811691161461085c57600080fd5b600555565b601281565b3381151561087357600080fd5b600160a060020a03811660009081526002602052604090205461089c908363ffffffff61159116565b600160a060020a0382166000908152600260205260409020556008546108c8908363ffffffff61159116565b6008555050565b60066020526000908152604090205481565b600b6020526000908152604090205481565b600160a060020a0333166000908152600c602052604090205460ff16151561091a57600080fd5b6040517f70656e64696e67000000000000000000000000000000000000000000000000008152600701604051908190039020600160a060020a03831660009081526007602052604090819020905180828054600181600116156101000203166002900480156109c05780601f1061099e5761010080835404028352918201916109c0565b820191906000526020600020905b8154815290600101906020018083116109ac575b5050915050604051908190039020146109d857600080fd5b600160a060020a0382166000908152600a6020526040902054610a0290600163ffffffff61159116565b508015610a3557600160a060020a0382166000908152600b6020526040902054610a3390600163ffffffff61159116565b505b600954600160a060020a0383166000908152600a602052604090205410801590610aa55750600160a060020a0382166000908152600a6020908152604080832054600b90925290912054610aa390600190610a9790600263ffffffff6115ab16565b9063ffffffff61159116565b115b15610b48576040805190810160409081526009825260008051602061168f833981519152602080840191909152600160a060020a0385166000908152600790915220908051610af89291602001906115d6565b506000805160206116af83398151915233604051600160a060020a039091166020820152604080825260098183015260008051602061168f83398151915260608301526080909101905180910390a15b5050565b60048054600181600116156101000203166002900480601f016020809104026020016040519081016040528092919081815260200182805460018160011615610100020316600290048015610be25780601f10610bb757610100808354040283529160200191610be2565b820191906000526020600020905b815481529060010190602001808311610bc557829003601f168201915b505050505081565b60076020528060005260406000206000915090508054600181600116156101000203166002900480601f016020809104026020016040519081016040528092919081815260200182805460018160011615610100020316600290048015610be25780601f10610bb757610100808354040283529160200191610be2565b6040517f61637469766500000000000000000000000000000000000000000000000000008152600601604051908190039020600160a060020a0333166000908152600760205260409081902090518082805460018160011615610100020316600290048015610d0d5780601f10610ceb576101008083540402835291820191610d0d565b820191906000526020600020905b815481529060010190602001808311610cf9575b505091505060405190819003902014610d2557600080fd5b600160a060020a033316600090815260026020526040902054610d4e908263ffffffff61159116565b600160a060020a033316600090815260026020526040902055600854610d7a908263ffffffff61159116565b6008556040805190810160409081526008825260008051602061166f833981519152602080840191909152600160a060020a0333166000908152600790915220908051610dcb9291602001906115d6565b506000805160206116af83398151915233604051600160a060020a039091166020820152604080825260088183015260008051602061166f83398151915260608301526080909101905180910390a150565b60055481565b600160a060020a033016315b90565b600160a060020a031660009081526002602052604090205490565b60405160008051602061168f8339815191528152600901604051908190039020600160a060020a0382166000908152600760205260409081902090518082805460018160011615610100020316600290048015610ee15780601f10610ebf576101008083540402835291820191610ee1565b820191906000526020600020905b815481529060010190602001808311610ecd575b50509150506040519081900390201415610efa57600080fd5b60408051908101604090815260078083527f70656e64696e6700000000000000000000000000000000000000000000000000602080850191909152600160a060020a038516600090815291905220908051610b489291602001906115d6565b600054600160a060020a031681565b60408051908101604052600381527f5049430000000000000000000000000000000000000000000000000000000000602082015281565b60095481565b33600060405160008051602061168f8339815191528152600901604051908190039020600160a060020a038316600090815260076020526040908190209051808280546001816001161561010002031660029004801561103c5780601f1061101a57610100808354040283529182019161103c565b820191906000526020600020905b815481529060010190602001808311611028575b5050915050604051908190039020141561105557600080fd5b6040517f70656e64696e67000000000000000000000000000000000000000000000000008152600701604051908190039020600160a060020a03831660009081526007602052604090819020905180828054600181600116156101000203166002900480156110fb5780601f106110d95761010080835404028352918201916110fb565b820191906000526020600020905b8154815290600101906020018083116110e7575b5050915050604051908190039020141561111457600080fd5b50600160a060020a03811660009081526006602052604090205480151561113a57600080fd5b600160a060020a033016318190101561115257600080fd5b600160a060020a038216600090815260066020908152604080832092909255905190810160409081526000808352600160a060020a03851681526007602052209080516111a39291602001906115d6565b50600160a060020a0382166000908152600260205260409020546111cd908463ffffffff61159116565b600160a060020a0383166000908152600260205260409020556008546111f9908463ffffffff61159116565b600855600160a060020a03821681156108fc0282604051600060405180830381858888f19350505050151561122d57600080fd5b6000805160206116af83398151915233604051600160a060020a0390911660208201526040808252600c818301527f756e72656769737465726564000000000000000000000000000000000000000060608301526080909101905180910390a1505050565b600160a060020a0333166000908152600260205260408120548290108015906112bb5750600082115b1561132d57600160a060020a033381166000818152600260205260408082208054879003905592861680825290839020805486019055917fddf252ad1be2c89b69c2b068fc378daa952ba7f163c4a11628f55a4df523b3ef9085905190815260200160405180910390a35060016105b5565b5060006105b5565b600a6020526000908152604090205481565b60405160008051602061166f8339815191528152600801604051908190039020600160a060020a03331660009081526007602052604090819020905180828054600181600116156101000203166002900480156113db5780601f106113b95761010080835404028352918201916113db565b820191906000526020600020905b8154815290600101906020018083116113c7575b5050915050604051908190039020146113f357600080fd5b604080519081016040908152600682527f6163746976650000000000000000000000000000000000000000000000000000602080840191909152600160a060020a03331660009081526007909152209080516114539291602001906115d6565b506000805160206116af83398151915233604051600160a060020a03909116602082015260408082526006818301527f616374697665000000000000000000000000000000000000000000000000000060608301526080909101905180910390a1565b600160a060020a03918216600090815260036020908152604080832093909416825291909152205490565b60005433600160a060020a039081169116146114fc57600080fd5b600160a060020a038116151561151157600080fd5b600054600160a060020a0380831691167f8be0079c531659141344cd1fd0a4f28419497f9722a3daafe3b4186f6b6457e060405160405180910390a36000805473ffffffffffffffffffffffffffffffffffffffff1916600160a060020a0392909216919091179055565b600c6020526000908152604090205460ff1681565b6000828201838110156115a057fe5b8091505b5092915050565b6000808315156115be57600091506115a4565b508282028284828115156115ce57fe5b04146115a057fe5b828054600181600116156101000203166002900490600052602060002090601f016020900481019282601f1061161757805160ff1916838001178555611644565b82800160010185558215611644579182015b82811115611644578251825591602001919060010190611629565b50611650929150611654565b5090565b610e2f91905b80821115611650576000815560010161165a5600696e6163746976650000000000000000000000000000000000000000000000006d616c6963696f75730000000000000000000000000000000000000000000000295fe13a5847f1e1b369c5842cc581851172a4d741d8ed3076e8cdf55f97b067a165627a7a7230582014fac4e8f2a207da92e100ba6ef459d9434b5aebde87c5d93f6a6d085701f31c0029",
  "source": "pragma solidity ^0.4.2;\n\nimport \"./Ownable.sol\";\nimport \"./SafeMath.sol\";\nimport \"./StandardToken.sol\";\n\ncontract Picolo is Ownable, StandardToken {\n\n  \tusing SafeMath for uint256;\n\n    // metadata\n    string public constant name = \"Picolo Token\";\n    string public constant symbol = \"PIC\";\n    uint256 public constant decimals = 18;\n    string public version = \"1.0\";\n\n   \tuint public entryStake = 0.01 ether;  // amount of eth required for staking\n   \tmapping(address => uint) public registeredNodesStake;\n   \tmapping(address => string) public nodeStatus;\n    uint256 public totalPayments;\n\n   \tuint public convictThreshold = 3;\n   \tmapping(address => uint) public voteTally;\n   \tmapping(address => uint) public maliciousVoteTally;\n   \tmapping(address => bool) public validators;\n\n    function Picolo() public {\n      totalSupply = 1 * (10**9) * (10 ** decimals);\n      balances[msg.sender] = totalSupply;\n    }\n\n    // Status of transaction. Used for error handling.\n\n   \tevent nodeStatusChangeEvent (\n   \t\tstring newStatus,\n   \t\taddress sender\n   \t);\n\n    modifier checkStake() {\n        require(msg.value == entryStake);\n        _;\n    }\n\n    modifier onlyValidators() {\n        require(validators[msg.sender]);\n        _;\n    }\n\n    modifier checkClaim() {\n        // to be implemented\n        _;\n    }\n\n   \tfunction register() public payable checkStake {\n      require(keccak256(nodeStatus[msg.sender]) == keccak256(\"\"));\n      require(registeredNodesStake[msg.sender] == 0);\n      nodeStatus[msg.sender] = 'inactive';\n   \t\tregisteredNodesStake[msg.sender] = entryStake;\n      emit nodeStatusChangeEvent('inactive', msg.sender);\n  \t}\n\n   \tfunction start() public {\n \t\t  require(keccak256(nodeStatus[msg.sender]) == keccak256(\"inactive\"));\n \t   \tnodeStatus[msg.sender] = 'active';\n \t   \temit nodeStatusChangeEvent('active', msg.sender);\n   \t}\n\n   \tfunction stop(uint256 mined) public {\n \t\t  require(keccak256(nodeStatus[msg.sender]) == keccak256(\"active\"));\n      // adding mined picolos\n      balances[msg.sender] = balances[msg.sender].add(mined);\n      totalPayments = totalPayments.add(mined);\n \t   \tnodeStatus[msg.sender] = 'inactive';\n \t   \temit nodeStatusChangeEvent('inactive', msg.sender);\n   \t}\n\n   \tfunction unregister(uint256 mined) public {\n      address payee = msg.sender;\n   \t\trequire(keccak256(nodeStatus[payee]) != keccak256(\"malicious\"));\n   \t\trequire(keccak256(nodeStatus[payee]) != keccak256(\"pending\"));\n\n      uint256 payment = registeredNodesStake[payee];\n      require(payment != 0);\n      require(address(this).balance >= payment);\n\n      registeredNodesStake[payee] = 0;\n      nodeStatus[payee] = '';\n      // adding mined picolos\n      balances[payee] = balances[payee].add(mined);\n      totalPayments = totalPayments.add(mined);\n      // transferring ether security deposit\n      payee.transfer(payment);\n \t   \temit nodeStatusChangeEvent('unregistered', msg.sender);\n   \t}\n\n    function claim(uint256 mined) public checkClaim {\n      address payee = msg.sender;\n      require(mined != 0);\n      balances[payee] = balances[payee].add(mined);\n      totalPayments = totalPayments.add(mined);\n    }\n\n   \tfunction changeEntryStake(uint _stake) public onlyOwner {\n        entryStake = _stake;\n    }\n\n    function getContractBalance() public view returns(uint) {\n        return address(this).balance;\n    }\n\n    // Challenges\n    function addPotentialMalicious(address _target) public {\n    \trequire(keccak256(nodeStatus[_target]) != keccak256(\"malicious\"));\n   \t  nodeStatus[_target] = 'pending';\n    }\n\n    // Consensus\n    function voteMalicious(address _target, bool _convict) public onlyValidators {\n    \trequire(keccak256(nodeStatus[_target]) == keccak256(\"pending\"));\n    \tvoteTally[_target].add(1);\n    \tif (_convict) {\n    \t\tmaliciousVoteTally[_target].add(1);\n    \t}\n    \tif (voteTally[_target] >= convictThreshold\n    \t\t&& maliciousVoteTally[_target].mul(2).add(1) > voteTally[_target]) {\n    \t\tnodeStatus[_target] = 'malicious';\n   \t   \temit nodeStatusChangeEvent('malicious', msg.sender);\n    \t}\n    }\n    // todo: TCR for masternodes\n}\n",
  "sourcePath": "/Users/adi/work/projects/picolo-poc/truffle/contracts/Picolo.sol",
  "compiler": {
    "name": "solc",
    "version": "0.4.21+commit.dfe3193c.Emscripten.clang"
  },
  "schemaVersion": "2.0.0",
  "updatedAt": "2018-04-25T11:45:33.013Z"
}